:1000000012C02CC02BC02AC029C028C076C026C070
:1000100025C04FC123C022C021C020C01FC01EC0A8
:100020001DC01CC01BC011241FBECFE5D4E0DEBF25
:10003000CDBF10E0A0E6B0E0E6E7F5E002C0059035
:100040000D92A637B107D9F720E0A6E7B0E001C0CE
:100050001D92A238B207E1F758D28BC2D1CF90914E
:100060007D00E6E7F0E08DEC989F912D11249695A8
:1000700096959695958320917D00289F912D11242A
:10008000392F369536953695932F990F990F930FF3
:10009000990F291B248390917E00989F912D112404
:1000A000969596959695938320917E00289F912D05
:1000B0001124392F369536953695932F990F990F30
:1000C000930F990F291B228390917F00989F912D68
:1000D0001124969596959695918320917F00289F5F
:1000E000812D1124869586958695982F990F990FC5
:1000F000890F880F281B208308951F920F920FB637
:100100000F9211242F933F934F935F936F937F939D
:100110008F939F93AF93BF93EF93FF938091800052
:1001200090918100892B99F580917F008F5F80935A
:100130007F0080917F008C33C0F010927F0080910F
:100140007E008F5F80937E0080917E008C3368F00C
:1001500010927E0080917D008F5F80937D00809162
:100160007D00883110F010927D0079DFFF91EF91D2
:10017000BF91AF919F918F917F916F915F914F91BF
:100180003F912F910F900FBE0F901F901895809167
:1001900060009091610007973CF487E090E09093B5
:1001A000610080936000E2CF8091620090916300D3
:1001B0009093610080936000D9CF83B7836083BF41
:1001C00089B7816089BF08958EB588608EBD8BEB3D
:1001D0009BE79BBD8ABD8EB584608EBD89B780616B
:1001E00089BF08958FEF81BB8FE384BB12BA15BA24
:1001F00087B38C7F87BB88B3836088BB089515BAAB
:100200008FEF82BBE0917C00F0E0EC59FF4F8081E2
:1002100085BB2091600030916100273031055CF191
:1002200080917C0090E0039666E070E07BD1FC0159
:10023000EA58FF4FE081F0E0E659FF4F808182BB32
:1002400080917C008F5F80937C0080917C00863061
:1002500010F010927C0090917C0020917C0081E055
:10026000923009F080E0811104C081E0211180E02A
:1002700081119798089580917C0090E0039666E044
:1002800070E050D12817390789F080917C0090E008
:10029000039666E070E046D1FC01EA58FF4FE0812A
:1002A000F0E0E659FF4F808182BBCACF8FEF82BB5F
:1002B000C7CF1F920F920FB60F9211242F933F9327
:1002C0004F935F936F937F938F939F93AF93BF935E
:1002D000EF93FF9394DFFF91EF91BF91AF919F91C7
:1002E0008F917F916F915F914F913F912F910F90DF
:1002F0000FBE0F901F901895809180009091810003
:10030000892B61F080916200909163000097E1F089
:10031000019790936300809362000CC081E090E0AD
:10032000909381008093800085E090E0909363003B
:10033000809362002FE78AE196E021508040904050
:10034000E1F700C000000895109281001092800033
:10035000F1CF8091800090918100019759F07FDE6C
:100360002FE78AE196E0215080409040E1F700C0FD
:1003700000000895809162009091630082309105A1
:1003800009F474C0B4F08430910579F10CF452C0D2
:10039000059729F780917D00865F80937D0080918D
:1003A0007D008931E0F280917D008E5180937D0047
:1003B000D6CF009709F485C0019789F680917F0018
:1003C000823308F478C020917F008DEC289F812D26
:1003D0001124869586958695982F990F990F890FE8
:1003E000880F281B20937F00BACF20917D008DECD1
:1003F000289F812D1124869586958695982F990F93
:10040000990F890F880F281B293051F080917D00AA
:10041000883161F080917D008F5F80937D009FCF58
:1004200080917D00895080937D0099CF84E18093F5
:100430007D0095CF80917E00823390F020917E00E8
:100440008DEC289F812D1124869586958695982F71
:10045000990F990F890F880F281B20937E007FCF5B
:1004600080917E00865F80937E0079CF20917E0010
:100470008DEC289F812D1124869586958695982F41
:10048000990F990F890F880F281B293051F08091FF
:100490007E008B3361F080917E008F5F80937E00C1
:1004A0005ECF80917E00895080937E0058CF82E39A
:1004B00080937E0054CF80917F00865F80937F0081
:1004C0004ECF20917F008DEC289F812D11248695A1
:1004D00086958695982F990F990F890F880F281B5D
:1004E000293051F080917F008B3361F080917F0043
:1004F0008F5F80937F0033CF80917F0089508093FE
:100500007F002DCF80917F002ACF6CDE56DE5CDE2F
:10051000789402C0B19B04C0B099FCCFEDDEFACF55
:1005200018DFFACF97FB072E16F4009406D077FD5C
:1005300008D00BD007FC05D03EF4909581959F4FD5
:100540000895709561957F4F0895AA1BBB1B51E1DB
:1005500007C0AA1FBB1FA617B70710F0A61BB70B33
:10056000881F991F5A95A9F780959095BC01CD01D8
:060570000895F894FFCF8E
:1005760007000500201008040201C0F9A4B09992F2
:0605860082F88090FF00E6
:00000001FF
